:020000040000FA
:100000000C946D000C9495000C9495000C94950044
:100010000C9495000C9495000C9495000C9495000C
:100020000C9495000C9495000C9495000C949500FC
:100030000C9495000C9495000C9495000C949500EC
:100040000C943F090C9495000C94AF090C94890909
:100050000C9495000C9495000C9495000C949500CC
:100060000C94E1090C94950031363A35393A343222
:10007000004E6F76203136203230323500000000DD
:1000800000240027002A0000000000250028002B83
:1000900000000000002300260029000404040404DA
:1000A0000404040202020202020303030303030125
:1000B00002040810204080010204081020010204FC
:1000C00008102000000008000201000003040700DF
:1000D00000000000000000000D0B11241FBECFEF38
:1000E000D8E0DEBFCDBF24E0ACEBB2E001C01D9292
:1000F000AA35B207E1F712E0A0E0B1E0EEEAF2E2E1
:1001000002C005900D92AC3BB107D9F710E0CDE6E7
:10011000D0E004C02197FE010E941610CC36D10712
:10012000C9F70E94560B0C9455110C9400000895C9
:100130000895833081F028F4813099F08230A9F05D
:1001400008958730A9F08830C9F08430B1F48091E7
:1001500080008F7D03C0809180008F778093800026
:10016000089584B58F7784BD089584B58F7DFBCFC6
:100170008091B0008F778093B00008958091B00097
:100180008F7DF9CFCF93DF93282F30E0F901ED5326
:10019000FF4F8491F901E155FF4FD491F901E556E4
:1001A000FF4FC491CC23A1F081110E949900EC2F44
:1001B000F0E0EE0FFF1FEF56FF4FA591B491EC91C9
:1001C000ED2381E090E009F480E0DF91CF91089584
:1001D00080E090E0FACF1F93CF93DF93282F30E099
:1001E000F901ED53FF4F8491F901E155FF4FD4918F
:1001F000F901E556FF4FC491CC23A9F0162F8111C8
:100200000E949900EC2FF0E0EE0FFF1FE957FF4F1F
:10021000A591B4918FB7F894EC91111108C0D095C5
:10022000DE23DC938FBFDF91CF911F910895DE2BEA
:10023000F8CFCF93DF9390E0FC01E155FF4F24917D
:1002400085569F4FFC0184918823D1F090E0880F60
:10025000991FFC01E358FF4FA591B491FC01E957A8
:10026000FF4FC591D491623071F49FB7F8943C91DF
:10027000822F809583238C93E8812E2B28839FBF28
:10028000DF91CF9108958FB7F894EC912E2B2C939A
:100290008FBFF6CF3FB7F894809124039091250348
:1002A000A0912603B091270326B5A89B05C02F3F38
:1002B00019F00196A11DB11D3FBFBA2FA92F982F8C
:1002C0008827BC01CD01620F711D811D911D42E087
:1002D000660F771F881F991F4A95D1F708958F924F
:1002E0009F92AF92BF92CF92DF92EF92FF924B011B
:1002F0005C010E944A016B017C010E944A016C1959
:100300007D098E099F09683E734081059105A8F318
:1003100021E0821A9108A108B10888EEC80E83E096
:10032000D81EE11CF11C81149104A104B10429F729
:10033000FF90EF90DF90CF90BF90AF909F908F9005
:1003400008952FB7F8946091200370912103809154
:100350002203909123032FBF0895AF92BF92CF92B3
:10036000DF92EF92FF920F931F93CF93DF936C0175
:100370007B018B01040F151FEB015E01AE18BF0856
:10038000C017D10759F06991D601ED91FC91019008
:10039000F081E02DC6010995892B79F7C501DF9120
:1003A000CF911F910F91FF90EF90DF90CF90BF9072
:1003B000AF900895FC01538D448D252F30E0842F9C
:1003C00090E0821B930B541710F0CF96089501977D
:1003D0000895FC01918D828D981761F0A28DAE0F6A
:1003E000BF2FB11D5D968C91928D9F5F9F73928FF1
:1003F00090E008958FEF9FEF0895FC01918D828D1D
:10040000981731F0828DE80FF11D858D90E00895E9
:100410008FEF9FEF0895FC01918D228D892F90E041
:10042000805C9F4F821B91098F739927089580EA02
:1004300093E00E940B0221E0892B09F420E0822F37
:10044000089580E090E0892B29F00E941702811125
:100450000C9400000895FC01A48DA80FB92FB11DC4
:10046000A35ABF4F2C91848D90E001968F739927EA
:10047000848FA689B7892C93A089B1898C918370C8
:1004800080648C93938D848D981306C00288F389C1
:10049000E02D80818F7D80830895EF92FF920F93EE
:1004A0001F93CF93DF93EC0181E0888F9B8D8C8D20
:1004B00098131AC0E889F989808185FF15C09FB714
:1004C000F894EE89FF896083E889F98980818370D7
:1004D000806480839FBF81E090E0DF91CF911F9186
:1004E0000F91FF90EF900895F62E0B8D10E00F5FA7
:1004F0001F4F0F731127E02E8C8D8E110CC00FB67D
:1005000007FCFACFE889F989808185FFF5CFCE0114
:100510000E942B02F1CFEB8DEC0FFD2FF11DE35A62
:10052000FF4FF0829FB7F8940B8FEA89FB89808197
:100530008062CFCFCF93DF93EC01888D8823B9F011
:10054000AA89BB89E889F9898C9185FD03C08081DE
:1005500086FD0DC00FB607FCF7CF8C9185FFF2CF5B
:10056000808185FFEDCFCE010E942B02E9CFDF9184
:10057000CF91089508952091E202260F3327331F6B
:1005800021323105ECF420917603FC0190E080E00B
:10059000243069F082E00895A091E2022191AC013B
:1005A0004E535D4FA40FB52FB11D2C9301968617A6
:1005B00098F38091E202680F6093E20280E0089570
:1005C00081E008951092760381E080937503109284
:1005D000500361E082E10E94EB0061E083E10E9450
:1005E000EB00E9EBF0E080818E7F808380818D7F5E
:1005F000808388E48093B80085E48093BC000895EC
:1006000010922F0310922E0310927D0310929F03DD
:100610000E94E20287E990E090932B0380932A03E3
:1006200088E990E090932903809328030895CF935D
:10063000DF9391E09093C1028823B9F0C091B80094
:10064000D091BA008091BC008A7B8093BC0060E0AE
:1006500082E10E94EB0060E083E10E94EB000E94D7
:10066000E202D093BA00C093B800DF91CF91089511
:100670008F929F92AF92BF92CF92DF92EF92FF92B2
:100680000F931F93CF93DF93D0919F03D13208F044
:10069000D7C0182FC0919E030E944A016B017C01B4
:1006A0008091760381116BC082E080937603109372
:1006B00075038FEF8093740310927303D0937203CA
:1006C000AEE7B3E0E2E5F3E080E0D81391C010922A
:1006D000510380915103CC0FC82BC09351038091DB
:1006E0005003813009F088C0109250030E944A01E3
:1006F0006B017C01809151038093BB008091780352
:1007000090917903A0917A03B0917B03892B8A2B76
:100710008B2BA1F00E944A0100917803109179037C
:1007200020917A0330917B036C197D098E099F0912
:10073000061717072807390708F442C08091BC0044
:1007400083FDD8CF85EC8093BC000E944A016B01E9
:100750007C0180917603823009F450C0809174034B
:100760008F3F09F46FC080917403803209F46CC02C
:1007700080917403803309F469C084E026C08091BD
:10078000780390917903A0917A03B0917B03892B30
:100790008A2B8B2B09F484CF0E944A018090780326
:1007A00090907903A0907A03B0907B036C197D0937
:1007B0008E099F0986169706A806B90608F070CF1D
:1007C000809177030E94170385E010927D031092B9
:1007D0009F0310927C03DF91CF911F910F91FF90A7
:1007E000EF90DF90CF90BF90AF909F908F90089543
:1007F0009D9191938F5F69CF85EEA5CF809178030E
:1008000090917903A0917A03B0917B03892B8A2B75
:100810008B2B09F49ECF0E944A010091780310911E
:10082000790320917A0330917B036C197D098E093D
:100830009F09061717072807390708F08ACFC0CF86
:1008400081E0C3CF80E0C1CF82E0BFCF83E0BDCFE6
:100850001F93CF93DF93EA01122FDC0111968D9144
:100860009C91DC01ED91FC910280F381E02D0995D2
:10087000C817D90729F4812F0E94380391E081110C
:1008800090E0892FDF91CF911F910895CF93DF934F
:10089000EC018B818823A1F0888191E090937C0307
:1008A00080939E0310927D0310929F0381E00E942B
:1008B000380391E0811190E0892FDF91CF91089565
:1008C0000E94000381E08B83CE010E944604982F92
:1008D0008111E2CFF1CF0895E0912F0380912E0393
:1008E000E81730F4F0E0E05DFC4F808190E008957F
:1008F0008FEF9FEF089590912F0380912E032FEF9C
:100900003FEF981748F4E92FF0E0E05DFC4F2081BD
:1009100030E09F5F90932F03C901089580912E03CB
:1009200090912F03891B990B0895CF92DF92EF923C
:10093000FF920F931F93CF93DF937C01CB018A012A
:1009400020917C03222389F0EB016B01C40ED51E9C
:10095000CC15DD0569F06991D701ED91FC9101900D
:10096000F081E02DC7010995F3CF642F0E94BB02EF
:10097000C801DF91CF911F910F91FF90EF90DF9011
:10098000CF900895CF93DF931F92CDB7DEB76983E1
:1009900020917C032223F9F020919F03203258F00C
:1009A00021E030E0FC013383228390E080E00F906F
:1009B000DF91CF91089580917D03E82FF0E0E25818
:1009C000FC4F998190838F5F80937D0380939F0379
:1009D00081E090E0ECCF61E0CE0101960E94BB0285
:1009E000F7CFFC01248131E030937C0320939E03F8
:1009F00010927D0310929F038485682B8DE394E011
:100A00000E94C20481E00C94380390E080E00895D5
:100A10002F923F924F925F926F927F928F929F920E
:100A2000AF92BF92CF92DF92EF92FF920F931F93FC
:100A3000CF93DF935C011B016A01F12CE12CD501FE
:100A400014968D919C9186010E191F0980179107AC
:100A500008F48C01F501D0810E944A012B013C0170
:100A600080917603811172C0C02F013208F0C0E27C
:100A7000F1E0F093760321E0C601801B910BE816AC
:100A8000F90608F420E0209375038FEF8093740338
:100A9000109273038C0F80937203A1E0A093510313
:100AA00080915103DD0FD82BD093510380915003D7
:100AB000813009F090C0109250030E944A012B012E
:100AC0003C01809151038093BB0080917803909109
:100AD0007903A0917A03B0917B03892B8A2B8B2B0E
:100AE000A1F00E944A01209178033091790340914E
:100AF0007A0350917B0364197509860997092617B3
:100B000037074807590708F442C08091BC0083FDAD
:100B1000D8CFB5ECB093BC000E944A012B013C0138
:100B200080917603813009F45AC0809173038C1749
:100B300010F4C0917303A2E5B3E0E0E3F3E080E0DA
:100B40008C1751F19D9191938F5FFACF809178032B
:100B500090917903A0917A03B0917B03892B8A2B22
:100B60008B2B09F47DCF0E944A01209178033091AC
:100B7000790340917A0350917B03641975098609C2
:100B80009709261737074807590708F069CF80915A
:100B900077030E941703C0E010922F03C0932E0327
:100BA000C017110609F057C041018E0C9F1CE401CB
:100BB000CE01881999098017910798F5D5011196EA
:100BC0008D919C91DC01ED91FC910284F385E02DE7
:100BD00009958993EDCFE5EEE093BC009DCF809120
:100BE000780390917903A0917A03B0917B03892BCC
:100BF0008A2B8B2B09F494CF0E944A012091780311
:100C00003091790340917A0350917B0364197509FF
:100C100086099709261737074807590708F080CF34
:100C2000B6CFE00EF11EEC14FD0408F408CF81E00D
:100C3000DF91CF911F910F91FF90EF90DF90CF90B8
:100C4000BF90AF909F908F907F906F905F904F90EC
:100C50003F902F90089580E0EBCFEF92FF920F939B
:100C60001F93CF93DF9300D000D000D01F92CDB759
:100C7000DEB78C011982E0902C03F0902D03D70190
:100C800014968D919C911597892BE9F08C9191E0A8
:100C900090937C0380939E0310927D0310929F0398
:100CA00020E041E050E0BE016F5F7F4FC7010E942E
:100CB0002804882341F047E050E0BE016F5F7F4F7A
:100CC000C7010E940805E981EF77FA81FB804D8119
:100CD0005E818F81282F30E094E0359527959A9595
:100CE000E1F7922F990F990F291B220F280FD80196
:100CF0002C93852F90E024E0959587952A95E1F730
:100D0000982F990F990F891B880F850F11968C9337
:100D10001197642F70E034E0759567953A95E1F787
:100D2000862F880F880F681B660F640F12966C93CE
:100D300012974F2D50E064E0559547956A95E1F77D
:100D4000842F880F880F481B440F4F0D13964C9328
:100D500013972F2F30E074E0359527957A95E1F7BA
:100D6000822F880F880F281B220F2F0F14962C9389
:100D700014978E2F90E0F4E095958795FA95E1F71A
:100D8000982F990F990F891B880F8E0F15968C93AA
:100D9000C80127960FB6F894DEBF0FBECDBFDF9116
:100DA000CF911F910F91FF90EF9008950F931F9394
:100DB000CF938C01C62F0E94F1046C2F6460C80190
:100DC0000E94F1046C2F6B7FC8010E94F10483EC38
:100DD00090E00197F1F7CF911F910F9108950F9334
:100DE0001F93CF93DF938C01D62FC42F607F642B8A
:100DF0000E94D60680E1D89FB00111246C2BC80157
:100E0000DF91CF911F910F910C94D606CF93DF9372
:100E1000CDB7DEB728970FB6F894DEBF0FBECDBFB3
:100E200098E0EDE0F1E0DE01119601900D929A95C7
:100E3000E1F790915104981708F48FEF90E0880F34
:100E4000991F21E030E02C0F3D1F820F931FFC0102
:100E50006081606840E089E494E028960FB6F894D9
:100E6000DEBF0FBECDBFDF91CF910C94EF0640E007
:100E700061E089E494E00E94EF068BE39FE1019733
:100E8000F1F780915204882319F080E00C94060752
:100E9000089541E00E94EF0681E090E0089541E06E
:100EA000682F89E494E00E94EF0681E090E00895C5
:100EB000FB0101900020E9F73197AF01461B570B6A
:100EC000DC01ED91FC910280F381E02D09948F9279
:100ED0009F92AF92BF92EF92FF920F931F93CF9387
:100EE000DF93CDB7DEB7A1970FB6F894DEBF0FBE84
:100EF000CDBF7C01262F30E050E040E019A28E01EA
:100F00000F5D1F4F8AE0882E912CA12CB12CCA01B5
:100F1000B901A50194010E94F40F605DF80162938C
:100F20008F01211531054105510589F790E080E0D9
:100F3000309721F0C701BF010E945807A1960FB654
:100F4000F894DEBF0FBECDBFDF91CF911F910F91FF
:100F5000FF90EF90BF90AF909F908F900895CF93A8
:100F6000DF93682F80EA93E00E946707EC0165E455
:100F700071E080EA93E00E9458078C0F9D1FDF917B
:100F8000CF910895CF93DF93D0E0C0E0009731F088
:100F9000BC0180EA93E00E945807EC0165E471E02F
:100FA00080EA93E00E9458078C0F9D1FDF91CF913C
:100FB00008950C9458070F931F93CF93DF9300D09D
:100FC00000D000D0CDB7DEB70E94A1010091BD02D4
:100FD0001091BE022091BF023091C002601B710BC4
:100FE000820B930B653F71408105910580F08091E4
:100FF000BC0291E089278093BC020E94A10160930A
:10100000BD027093BE028093BF029093C002009114
:101010001B0310911C03809100019091010108179E
:10102000190731F00E943707109301010093000166
:10103000CE0101960E942D0680911B0390911C0306
:101040008130910509F483C070F0029709F4B2C0B1
:1010500026960FB6F894DEBF0FBECDBFDF91CF91BD
:101060001F910F91089580E00E94060764E571E0EA
:1010700089E494E00E94D9078C818A3018F480E3D7
:101080000E944F076C8189E494E00E9467078AE31D
:101090000E944F078D818A3018F480E30E944F0729
:1010A0006D8189E494E00E9467078AE30E944F07FC
:1010B0008E818A3018F480E30E944F076E8189E4A4
:1010C00094E00E94670781E00E9406076AE571E0EC
:1010D00089E494E00E94D907109106011A3018F4AF
:1010E00080E30E944F07612F89E494E00E94670724
:1010F0008AE30E944F0710911A031A3018F480E314
:101100000E944F07612F89E494E00E946707809155
:101110001D036EE471E0882311F068E471E089E456
:1011200094E00E94D90780911E03882309F490CF90
:101130008091BC02882309F48BCF81E00E940607CE
:1011400065E671E089E494E00E94D90781CF80E0F0
:101150000E94060764E771E089E494E00E94D907E1
:1011600081E00E94060767E971E089E494E00E944B
:10117000D907109106011A3018F480E30E944F0736
:10118000612F89E494E00E9467076EE771E089E4CB
:1011900094E00E94D90710911A031A3018F480E3E2
:1011A0000E944F07612F89E494E00E94670760E87E
:1011B00071E0C8CF80E00E9406076BE871E089E427
:1011C00094E00E94D90781E00E9406071091060171
:1011D0001A3018F480E30E944F07612F89E494E0ED
:1011E0000E94670766E971E089E494E00E94D907EC
:1011F00010911A031A3018F480E30E944F07612FF0
:1012000089E494E00E94670769E971E09BCF85ED6E
:101210008093BC008091780390917903A0917A0328
:10122000B0917B030796A11DB11D23E0B695A7954C
:10123000979587952A95D1F72091BC0024FD03C08E
:10124000109276030895409178035091790360914C
:101250007A0370917B03452B462B472B69F300974C
:10126000A105B10541F02AE22A95F1F700C00197E6
:10127000A109B109E1CF809177030C9417031F9264
:101280000F920FB60F9211242F933F938F939F933A
:10129000AF93BF938091200390912103A0912203EB
:1012A000B091230330911F0323E0230F2D3758F50E
:1012B0000196A11DB11D20931F03809320039093DD
:1012C0002103A0932203B0932303809124039091E0
:1012D0002503A0912603B09127030196A11DB11DFE
:1012E0008093240390932503A0932603B0932703B0
:1012F000BF91AF919F918F913F912F910F900FBE12
:101300000F901F90189526E8230F0296A11DB11D7E
:10131000D2CF1F920F920FB60F9211242F933F93AB
:101320004F935F936F937F938F939F93AF93BF93ED
:10133000EF93FF9380EA93E00E942B02FF91EF91DD
:10134000BF91AF919F918F917F916F915F914F91DD
:101350003F912F910F900FBE0F901F9018951F92E5
:101360000F920FB60F9211242F938F939F93EF93A9
:10137000FF93E091B003F091B1038081E091B60357
:10138000F091B70382FD1BC090818091B9038F5FFC
:101390008F732091BA03821741F0E091B903F0E016
:1013A000E056FC4F958F8093B903FF91EF919F9189
:1013B0008F912F910F900FBE0F901F9018958081E5
:1013C000F4CF1F920F920FB60F9211242F933F93D9
:1013D0004F935F936F937F938F939F93AF93BF933D
:1013E000EF93FF938091B900887F803609F44AC05B
:1013F000F0F5883209F4A7C018F5803109F49BC0D4
:10140000B8F4882309F4F9C0883009F494C0FF9136
:10141000EF91BF91AF919F918F917F916F915F916C
:101420004F913F912F910F900FBE0F901F901895E5
:10143000883109F488C0803251F78093740314C056
:10144000803409F49DC040F48033B9F38833F9F651
:101450008093740385ECB0C0803509F485C088356D
:1014600009F496C0883499F60E940709D0CF8839CC
:1014700009F48CC038F5883729F050F4883611F01B
:10148000803729F683E0809376031092040357C0D7
:10149000883809F47BC0803919F0803809F0B7CF5B
:1014A00080910403803208F071C0E091040381E070
:1014B0008E0F809304038091BB00F0E0EC51FD4F50
:1014C00080833DC0803B39F0E0F4803A09F479C074
:1014D000883A09F09CCF84E0809376031092E3026F
:1014E0001092E202E0912A03F0912B03099580917A
:1014F000E20281110FC081E08093E2021092C202E9
:1015000009C0803C09F4A6CF883C09F4A3CF883BEE
:1015100009F07DCFE091E30281E08E0F8093E3023A
:10152000F0E0EE53FD4F80818093BB009091E30289
:101530008091E20229C0809151038093BB0085EC29
:101540008093BC0064CF90917303809172039817CD
:1015500058F5E091730381E08E0F80937303F0E000
:10156000EE5AFC4F8081E9CFE091730381E08E0F4A
:10157000809373038091BB00F0E0EE5AFC4F8083B0
:1015800090917303809172039817C8F285E8D8CFC1
:10159000E091730381E08E0F809373038091BB0011
:1015A000F0E0EE5AFC4F80838091750381115CCF8F
:1015B00081E08093500384EA8093BC00109276030C
:1015C00026CF85EC8093BC001092760380910403B3
:1015D000803230F4E0910403F0E0EC51FD4F1082D2
:1015E0006091040370E0E0912803F091290384EEF8
:1015F00092E00995109204030ACF1092740334CF3D
:10160000FC01908190539A3008F090E081818053E2
:101610002AE0929F800D11240895E0EAF3E01382FE
:10162000128288EE93E0A0E0B0E084839583A683E5
:10163000B78329E131E03183208325EC30E0358721
:10164000248724EC30E03787268720EC30E0318B8C
:10165000208B21EC30E0338B228B22EC30E0358B79
:10166000248B26EC30E0378B268B118E128E138E56
:10167000148EEDE3F4E01382128284839583A683B3
:10168000B7838BE291E091838083E9E4F4E01382F5
:1016900012828DE391E091838083118687E28483B7
:1016A00080E1828782E0838714860895CF93DF9359
:1016B000CDB7DEB72C970FB6F894DEBF0FBECDBF07
:1016C000789484B5826084BD84B5816084BD85B51D
:1016D000826085BD85B5816085BD80916E00816029
:1016E00080936E00109281008091810082608093CF
:1016F00081008091810081608093810080918000D1
:101700008160809380008091B10084608093B100FB
:101710008091B00081608093B00080917A008460F5
:1017200080937A0080917A00826080937A00809121
:101730007A00816080937A0080917A00806880933B
:101740007A001092C100E091B003F091B10382E001
:101750008083E091AC03F091AD031082E091AE0381
:10176000F091AF038FEC80831092B803E091B40343
:10177000F091B50386E08083E091B203F091B3036A
:10178000808180618083E091B203F091B303808116
:1017900088608083E091B203F091B3038081806818
:1017A0008083E091B203F091B30380818F7D8083C9
:1017B0000E94000310924E0480915404823018F06D
:1017C00098E090934E048093510462E370E080E0CF
:1017D00090E00E946F016091550489E494E00E94BA
:1017E000F10468EE73E080E090E00E946F0160E336
:1017F00089E494E00E94D6060BE416E4C801019740
:10180000F1F760E389E494E00E94D606C8010197ED
:10181000F1F760E389E494E00E94D60683E592E064
:101820000197F1F760E289E494E00E94D6066091A6
:101830004E04606240E089E494E00E94EF0684E098
:1018400080934F0440E06CE089E494E00E94EF064E
:101850000E94370782E08093500440E066E089E40C
:1018600094E00E94EF0640E062E089E494E00E9488
:10187000EF068BE39FE10197F1F788E08093550431
:1018800060E089E494E00E94F10480E00E94060791
:1018900080912C0390912D03009711F00E94CC10A1
:1018A00086E090E00E9430108C0188E6F801808389
:1018B0008DE394E092838183138280E290E09583AC
:1018C000848310932D0300932C030E940003EE24C5
:1018D000E394F801E382C8010E94460481110BC021
:1018E0006AEA71E089E494E00E94D9078AEA91E00B
:1018F0000E94C207FFCF1C8680912C0390912D037C
:10190000FC0124813581232B89F02081E0927C0326
:1019100020939E0310927D0310929F0321E041E0EB
:1019200050E0BE01645F7F4F0E94280441E050E018
:101930008E010F5F1F4FB80180912C0390912D03F2
:101940000E940805898190E0880F892F881F990BD4
:10195000892B09F4B9C00E9437076EEB71E089E466
:1019600094E00E94D9078EEB91E00E94C2074BE001
:1019700050E061E770E0C8010E94CB0FCE010A96EB
:101980000E94000BE82EE981E154E33130F50E2E80
:10199000000CFF0BE253F34F0C941610FE0DED0CF0
:1019A000ED0C190EED0C1C0EED0CED0CED0CE10C1C
:1019B000ED0CED0C070E160E130EED0CED0CED0CF0
:1019C000100E8A81FF24F394813639F08B81B6E0C2
:1019D000FB2E8E3611F0A7E0FA2ECE0105960E945E
:1019E000000BD82E48E050E068E670E0C8010E9485
:1019F000CB0FC8010E94000BC82ECE0104960E9496
:101A0000000BB82ECE0107960E94000B382F86E0FF
:101A1000F80111928A95E9F72AE0832F622F0E943C
:101A2000D40F982F880F890F880F830F8A838B2DEF
:101A30000E94D40F982F880F890F880F8B0D8B83EE
:101A40008C2D0E94D40F982F880F890F880F8C0D32
:101A50008C838D2D0E94D40F982F880F890F880FAB
:101A60008D0D8E838F2D0E94D40F982F990F890F83
:101A7000880FF80EFF828E2D0E94D40F982F880FAA
:101A8000890F880F8E0D888780912C0390912D03EC
:101A9000FC01248135812830310580F0208131E03E
:101AA00030937C0320939E0310927D0310929F033A
:101AB00021E048E050E0B8010E94280460ED77E0A2
:101AC00080E090E00E946F0161E086E00E941901D1
:101AD00060E086E00E94EB0062E082E00E94190173
:101AE00062E083E00E94190162E084E00E94190133
:101AF00062E085E00E9419010E94370788ED91E0BD
:101B00000E94C20788EE282E83E0382E412C512CEB
:101B1000772473940E94A101C0901503D0901603FE
:101B2000E0901703F09018036C157D058E059F0556
:101B3000D8F160901E0382E00E94C2004C0183E055
:101B40000E94C2005C0184E00E94C2006C0185E03A
:101B50000E94C2007C01662009F471C081149104C6
:101B600049F0A114B10431F0C114D10419F0892B4A
:101B700009F05AC18BEE91E00E94C20710921E0339
:101B80001092190360E086E00E94EB000E94A10120
:101B90006C507E4F8F4F9F4F6093150370931603C9
:101BA000809317039093180380911E03882309F4F0
:101BB000C1C10E94A101A20191010E94F40F683CE1
:101BC00071058105910508F0B3C161E086E00E94CE
:101BD000EB000E94DB0764E170E080E090E00E948F
:101BE0006F0180E090E0892B09F494CF0E941702E6
:101BF000882309F48DCF0E9400008ACF8B81F4E006
:101C0000FF2E823709F4E9CEE8E0FE2EE6CE8B8186
:101C100073E0F72E823709F4E0CE65E0F62EDDCED4
:101C200059E0F52EDACE4AE0F42ED7CE3BE0F32E83
:101C3000D4CE2CE0F22ED1CE92E0F92ECECE81146D
:101C40009104A9F580910501811131C00E94A10183
:101C5000209111033091120340911303509114030A
:101C6000621B730B840B950B633371058105910522
:101C7000F0F080E092E00E94C20780911B039091F7
:101C80001C03892B51F481E090E090931C03809316
:101C90001B0381E192E00E94C2070E94A1016093B0
:101CA0001103709312038093130390931403A114F0
:101CB000B10409F03FC08091040181113BC00E9432
:101CC000A10120910D0330910E0340910F0350911B
:101CD0001003621B730B840B950B63337105810535
:101CE000910540F180911B0390911C038130910577
:101CF00009F0B3C08091060190E0019668E170E0C0
:101D00000E94E00F8093060160E372E080EA93E0B6
:101D10000E94D907809106010E94AF070E94DB074D
:101D20000E94A10160930D0370930E0380930F0333
:101D300090931003C114D104E9F58091030181113E
:101D400039C00E94A1012091090330910A034091FA
:101D50000B0350910C03621B730B840B950B6333C5
:101D600071058105910530F180911B0390911C0351
:101D70008130910509F0A3C080910601882309F400
:101D80009CC081508093060160E372E080EA93E09A
:101D90000E94D907809106010E94AF070E94DB07CD
:101DA0000E94A1016093090370930A0380930B03BF
:101DB00090930C03E114F104B9F5809102018111B3
:101DC00033C00E94A1012091050330910603409188
:101DD000070350910803621B730B840B950B63334D
:101DE00071058105910500F18FE492E00E94C20720
:101DF00080911B0390911C038130910509F074C000
:101E0000E2E0F0E0F0931C03E0931B038FE592E027
:101E10000E94C2070E94A10160930503709306030C
:101E2000809307039093080381E0892809F080E0FC
:101E30008093050181E0AB2809F080E080930401E4
:101E400081E0CD2809F080E08093030181E0EF2854
:101E500009F080E080930201A7CE8230910599F4C9
:101E600080911A0390E001966CE370E00E94E00F0D
:101E700080931A036FE372E080EA93E00E94D9072F
:101E800080911A0349CF892B09F04ACF80911D0315
:101E9000872580931D036AE571E080EA93E00E9444
:101EA000D90780911D03882329F082EA91E00E94DE
:101EB000C20734CF86EA91E0FACF87E163CF029779
:101EC00009F06ECF80911A03882361F081508093CE
:101ED0001A036FE372E080EA93E00E94D9078091D1
:101EE0001A035ACF8BE3F3CF029709F093CF1092E6
:101EF0001C0310921B0370921D038FE792E00E9457
:101F0000C20764E972E080EA93E00E94D907609119
:101F1000060180EA93E00E9467076EE771E080EABD
:101F200093E00E94D90780911A030E94AF0772CFF5
:101F300060E04CCE80911D03882309F44ACE809145
:101F40001B0390911C03892B09F043CEC8010E940A
:101F50002D069C8180910601981314C09D8180916B
:101F60001A0398130FC08E81853060F48091190395
:101F7000811108C087EA92E00E94C20770921E0396
:101F8000709219039D8180911A03981709F421CE4C
:101F9000109219031ECEFB01DC0102C005900D92C8
:101FA00041505040D8F70895991B79E004C0991F1B
:101FB000961708F0961B881F7A95C9F780950895A3
:101FC00097FB072E16F4009407D077FD09D00E94E6
:101FD0001C1007FC05D03EF4909581959F4F089505
:101FE000709561957F4F0895A1E21A2EAA1BBB1B25
:101FF000FD010DC0AA1FBB1FEE1FFF1FA217B307D5
:10200000E407F50720F0A21BB30BE40BF50B661FEA
:10201000771F881F991F1A9469F7609570958095AE
:1020200090959B01AC01BD01CF010895EE0FFF1FFC
:102030000590F491E02D0994AA1BBB1B51E107C048
:10204000AA1FBB1FA617B70710F0A61BB70B881F48
:10205000991F5A95A9F780959095BC01CD010895D7
:102060000F931F93CF93DF938230910510F482E09A
:1020700090E0E0915804F091590430E020E0B0E0A5
:10208000A0E0309799F42115310509F44AC0281BC6
:10209000390B24303105D8F58A819B816115710592
:1020A00089F1FB0193838283FE0111C0408151813C
:1020B0000281138148175907E0F04817590799F42E
:1020C000109761F012960C93129713961C93329608
:1020D000CF01DF91CF911F910F9108950093580484
:1020E00010935904F4CF2115310551F042175307CD
:1020F00038F0A901DB019A01BD01DF01F801C1CF70
:10210000EF01F9CF9093590480935804CDCFFE018D
:10211000E20FF31F81939193225031093983288371
:10212000D7CF2091560430915704232B41F42091AE
:10213000090130910A0130935704209356042091ED
:102140000701309108012115310541F42DB73EB743
:1021500040910B0150910C01241B350BE09156046A
:10216000F0915704E217F307A0F42E1B3F0B28173A
:10217000390778F0AC014E5F5F4F2417350748F000
:102180004E0F5F1F509357044093560481939193D1
:102190009FCFF0E0E0E09CCFCF93DF930097E9F092
:1021A000FC01329713821282A0915804B091590415
:1021B000ED0130E020E01097A1F420813181820F01
:1021C000931F20915604309157042817390709F0BE
:1021D00061C0F0935704E0935604DF91CF910895C6
:1021E000EA01CE17DF07E8F54A815B819E014115C0
:1021F0005105B1F7E901FB83EA8349915991C40F75
:10220000D51FEC17FD0761F4808191810296840F40
:10221000951FE90199838883828193819B838A83B7
:10222000F0E0E0E012968D919C9113970097B9F53C
:102230002D913C911197CD010296820F931F209111
:102240005604309157042817390739F6309751F55D
:102250001092590410925804B0935704A093560456
:10226000BCCFD383C28340815181840F951FC8178F
:10227000D90761F44E5F5F4F88819981480F591FDC
:10228000518340838A819B81938382832115310509
:1022900009F0B0CFF0935904E09358049ECFFD01AC
:1022A000DC01C0CF13821282D7CFF894FFCFFFFF9B
:1022B000010101010600005A0480000000400014E2
:1022C000005400000000004D02AD01DA019A020B3B
:1022D00002E901FD0100000000C204950405056B40
:1022E000048E047B046C04000000004907AD010566
:1022F00005BA020D0A0020424154200020544154E6
:10230000200047696F3A200042616F20746875634E
:102310003A20004441592044492042414E204F492F
:1023200021004368696E682067696F003A00205396
:1023300045543E5068757420004368696E6820708B
:10234000687574003A3E00205345543E4C75750044
:1023500042415400544154004B686F6E67207469C9
:102360006D207468617920525443210044616E6786
:10237000206368696E6820646F6E6720686F205202
:1023800054432E2E2E0048652074686F6E672073AC
:10239000616E2073616E67210042616F2074687501
:1023A000632064612064756F6320746174004EC3A0
:1023B000BA74204D4F4445206E68E1BAA56E0043C3
:1023C000687579656E2073616E67206368696E68F1
:1023D0002067696F2062616F2074687563004769C8
:1023E0006F2062616F20746875633A2000506875D1
:1023F000742062616F20746875633A20004EC3BA1E
:102400007420534554206E68E1BAA56E0043687588
:1024100079656E2073616E67206368696E682070ED
:102420006875742062616F2074687563004C7575FF
:10243000207661206261742062616F207468756328
:10244000210042616F207468756320646174207696
:10245000616F3A200042414F2054485543204B4978
:0A246000434820484F41542100007A
:107E0000112484B714BE81FFF0D085E080938100F7
:107E100082E08093C00088E18093C10086E0809377
:107E2000C20080E18093C4008EE0C9D0259A86E02C
:107E300020E33CEF91E0309385002093840096BBD3
:107E4000B09BFECF1D9AA8958150A9F7CC24DD24C4
:107E500088248394B5E0AB2EA1E19A2EF3E0BF2EE7
:107E6000A2D0813461F49FD0082FAFD0023811F036
:107E7000013811F484E001C083E08DD089C08234E0
:107E800011F484E103C0853419F485E0A6D080C0E4
:107E9000853579F488D0E82EFF2485D0082F10E0AE
:107EA000102F00270E291F29000F111F8ED06801E7
:107EB0006FC0863521F484E090D080E0DECF843638
:107EC00009F040C070D06FD0082F6DD080E0C81688
:107ED00080E7D80618F4F601B7BEE895C0E0D1E017
:107EE00062D089930C17E1F7F0E0CF16F0E7DF06D8
:107EF00018F0F601B7BEE89568D007B600FCFDCFD4
:107F0000A601A0E0B1E02C9130E011968C91119780
:107F100090E0982F8827822B932B1296FA010C0160
:107F200087BEE89511244E5F5F4FF1E0A038BF0790
:107F300051F7F601A7BEE89507B600FCFDCF97BE46
:107F4000E89526C08437B1F42ED02DD0F82E2BD052
:107F50003CD0F601EF2C8F010F5F1F4F84911BD097
:107F6000EA94F801C1F70894C11CD11CFA94CF0C13
:107F7000D11C0EC0853739F428D08EE10CD085E9AC
:107F80000AD08FE07ACF813511F488E018D01DD067
:107F900080E101D065CF982F8091C00085FFFCCF94
:107FA0009093C60008958091C00087FFFCCF809118
:107FB000C00084FD01C0A8958091C6000895E0E648
:107FC000F0E098E1908380830895EDDF803219F02E
:107FD00088E0F5DFFFCF84E1DECF1F93182FE3DFCA
:107FE0001150E9F7F2DF1F91089580E0E8DFEE27F6
:047FF000FF270994CA
:027FFE00040479
:00000001FF
