:100000000C9462000C948A000C948A000C948A0070
:100010000C948A000C948A000C948A000C948A0038
:100020000C948A000C948A000C948A000C948A0028
:100030000C948A000C948A000C948A000C948A0018
:100040000C9462030C948A000C94D2030C94AC03BD
:100050000C948A000C948A000C948A000C948A00F8
:100060000C948A000C948A000000000024002700F1
:100070002A000000000023002600290000000000E4
:10008000250028002B0004040404040404040202D4
:100090000202020203030303030301020408102007
:1000A0004080010204081020010204081020000012
:1000B0000008000201000003040700000000000027
:1000C0000000C40611241FBECFEFD8E0DEBFCDBFB5
:1000D00022E0ACE5B1E001C01D92A331B207E1F727
:1000E00011E0A0E0B1E0EAE0F3E102C005900D927A
:1000F000AC35B107D9F710E0C2E6D0E004C02197D3
:10010000FE010E948B07C136D107C9F70E94040483
:100110000C9483090C940000833081F028F4813022
:1001200099F08230A9F008958730A9F08830C9F09D
:100130008430B1F4809180008F7D03C08091800075
:100140008F7780938000089584B58F7784BD08955C
:1001500084B58F7DFBCF8091B0008F778093B00006
:1001600008958091B0008F7DF9CF1F93CF93DF93D7
:10017000E1EBF0E09491EDE9F0E0D491E9E8F0E012
:10018000C491CC23B9F0182F992319F0892F0E941C
:100190008C00EC2FF0E0EE0FFF1FE458FF4FA5910D
:1001A000B4918FB7F894EC91111108C0D095DE236B
:1001B000DC938FBFDF91CF911F910895DE2BF8CF95
:1001C0003FB7F89480916E0190916F01A0917001FA
:1001D000B091710126B5A89B05C02F3F19F001967B
:1001E000A11DB11D3FBFBA2FA92F982F8827BC0191
:1001F000CD01620F711D811D911D42E0660F771FB9
:10020000881F991F4A95D1F708958F929F92AF92B8
:10021000BF92CF92DF92EF92FF924B015C010E945E
:10022000E0006B017C010E94E0006C197D098E09E1
:100230009F09683E734081059105A8F321E0821A69
:100240009108A108B10888EEC80E83E0D81EE11C11
:10025000F11C81149104A104B10429F7FF90EF90DF
:10026000DF90CF90BF90AF909F908F9008952FB761
:10027000F89460916A0170916B0180916C0190918A
:100280006D012FBF0895AF92BF92CF92DF92EF9290
:10029000FF920F931F93CF93DF936C017B018B0130
:1002A000040F151FEB015E01AE18BF08C017D10780
:1002B00059F06991D601ED91FC910190F081E02D0A
:1002C000C6010995892B79F7C501DF91CF911F915F
:1002D0000F91FF90EF90DF90CF90BF90AF90089577
:1002E000FC01538D448D252F30E0842F90E0821B3C
:1002F000930B541710F0CF96089501970895FC01C1
:10030000918D828D981761F0A28DAE0FBF2FB11D18
:100310005D968C91928D9F5F9F73928F90E0089570
:100320008FEF9FEF0895FC01918D828D981731F02A
:10033000828DE80FF11D858D90E008958FEF9FEF7E
:100340000895FC01918D228D892F90E0805C9F4F54
:10035000821B91098F739927089582E791E00E948B
:10036000A10121E0892B09F420E0822F089580E08B
:1003700090E0892B29F00E94AD0181110C940000BE
:100380000895FC01A48DA80FB92FB11DA35ABF4F2A
:100390002C91848D90E001968F739927848FA68984
:1003A000B7892C93A089B1898C91837080648C93D8
:1003B000938D848D981306C00288F389E02D808187
:1003C0008F7D80830895EF92FF920F931F93CF93B9
:1003D000DF93EC0181E0888F9B8D8C8D98131AC080
:1003E000E889F989808185FF15C09FB7F894EE8967
:1003F000FF896083E889F9898081837080648083C4
:100400009FBF81E090E0DF91CF911F910F91FF900E
:10041000EF900895F62E0B8D10E00F5F1F4F0F73B6
:100420001127E02E8C8D8E110CC00FB607FCFACF71
:10043000E889F989808185FFF5CFCE010E94C1014D
:10044000F1CFEB8DEC0FFD2FF11DE35AFF4FF08242
:100450009FB7F8940B8FEA89FB8980818062CFCFA8
:10046000CF93DF93EC01888D8823B9F0AA89BB89EB
:10047000E889F9898C9185FD03C0808186FD0DC0D6
:100480000FB607FCF7CF8C9185FFF2CF808185FFF7
:10049000EDCFCE010E94C101E9CFDF91CF91089548
:1004A00042E050E06CE171E082E791E00C9443019E
:1004B000CF93DF93FC01448155816081718182E794
:1004C00091E00E944301EC010E9450028C0F9D1F9D
:1004D000DF91CF910895CF93DF93FC01019000202D
:1004E000E9F73197AF01481B590BBC0182E791E056
:1004F0000E944301EC010E9450028C0F9D1FDF916E
:10050000CF910895FC0180819181009711F00C94A6
:100510002D0808950F931F93CF93DF93EC018881EB
:100520009981009759F02A813B812617370730F0CF
:1005300081E0DF91CF911F910F9108958B016F5F43
:100540007F4F0E94B608009759F0998388831B83D8
:100550000A832C813D81232B59F7FC011082E8CFBF
:1005600080E0E7CFEF92FF920F931F93CF93DF933B
:10057000EC01FB01E080F180E114F10411F1048150
:10058000158101151105A9F08C819D81080F191F96
:10059000B801CE010E948A02882399F0288139810E
:1005A0008C819D81B701820F931F0E947C091D835E
:1005B0000C83CE01DF91CF911F910F91FF90EF90AF
:1005C000089588819981009711F00E942D08198261
:1005D00018821D821C821B821A82EBCFEF92FF923F
:1005E0000F931F93CF93DF93EC017B018A01BA0134
:1005F0000E948A0228813981811114C02115310598
:1006000019F0C9010E942D08198218821D821C82CE
:100610001B821A82CE01DF91CF911F910F91FF9023
:10062000EF9008951D830C83B701C9010E947C09D6
:10063000F1CFEF92FF920F931F93CF93DF93CDB73C
:10064000DEB7A2970FB6F894DEBF0FBECDBF8C0108
:10065000CB01BA01F8011182108213821282158235
:1006600014822AE0AE014F5F5F4F7A010E94F106CB
:10067000F70101900020E9F73197AF014E195F09AA
:10068000B701C8010E94EE02A2960FB6F894DEBF31
:100690000FBECDBFDF91CF911F910F91FF90EF90D3
:1006A0000895FC0111821082138212821582148235
:1006B000FB0101900020E9F73197AF01461B570B72
:1006C0000C94EE021F920F920FB60F9211242F93EB
:1006D0003F938F939F93AF93BF9380916A019091C3
:1006E0006B01A0916C01B0916D013091690123E023
:1006F000230F2D3758F50196A11DB11D20936901D7
:1007000080936A0190936B01A0936C01B0936D018B
:1007100080916E0190916F01A0917001B091710173
:100720000196A11DB11D80936E0190936F01A0935E
:100730007001B0937101BF91AF919F918F913F91E3
:100740002F910F900FBE0F901F90189526E8230F42
:100750000296A11DB11DD2CF1F920F920FB60F921C
:1007600011242F933F934F935F936F937F938F93B6
:100770009F93AF93BF93EF93FF9382E791E00E9423
:10078000C101FF91EF91BF91AF919F918F917F91A7
:100790006F915F914F913F912F910F900FBE0F90EE
:1007A0001F9018951F920F920FB60F9211242F933E
:1007B0008F939F93EF93FF93E0918201F0918301D8
:1007C0008081E0918801F091890182FD1BC09081B8
:1007D00080918B018F5F8F7320918C01821741F084
:1007E000E0918B01F0E0EE58FE4F958F80938B01E6
:1007F000FF91EF919F918F912F910F900FBE0F90CE
:100800001F9018958081F4CFCF93DF93CDB7DEB7DB
:100810002C970FB6F894DEBF0FBECDBF789484B589
:10082000826084BD84B5816084BD85B5826085BDEC
:1008300085B5816085BD80916E00816080936E007A
:10084000109281008091810082608093810080916C
:10085000810081608093810080918000816080931D
:1008600080008091B10084608093B1008091B000DD
:1008700081608093B00080917A00846080937A00D8
:1008800080917A00826080937A0080917A00816002
:1008900080937A0080917A00806880937A00109229
:1008A000C100ACE92A2EA0E03A2EF1012491E8E83B
:1008B000F0E084918823C9F090E0880F991FFC0133
:1008C000E859FF4FA591B491FC01E458FF4F4591C1
:1008D00054919FB7F8943C91822F809583238C93F9
:1008E000FA018081282B20839FBFEDE9F0E024915D
:1008F000E9E8F0E08491882399F090E0880F991F4F
:10090000FC01E859FF4FA591B491FC01E458FF4F59
:10091000859194918FB7F894EC91E22BEC938FBF73
:1009200081E00E94B5008090000190900101A090AC
:100930000201B090030160E079E08DE390E0A50151
:1009400094010E94690721503109410951095695C6
:10095000479537952795E0918201F091830182E0D8
:1009600080838114F1EE9F06A104B10421F02115CA
:1009700080E13807A8F0E0918201F09183011082B4
:1009800060E874E88EE190E0A50194010E94690797
:1009900021503109410951095695479537952795B9
:1009A000E0917E01F0917F013083E0918001F09130
:1009B0008101208310928A01E0918601F0918701E4
:1009C00086E08083E0918401F091850180818061DF
:1009D0008083E0918401F09185018081886080832B
:1009E000E0918401F0918501808180688083E091AD
:1009F0008401F091850180818F7D8083B501A40100
:100A0000CE0101960E9419036FE171E0CE010796B5
:100A10000E945103BE016F5F7F4FCE0107960E9477
:100A2000B2020E945802CE0107960E948202CE01B5
:100A300001960E94820230E8832E35E2932EA12C8B
:100A4000B12C412C42EC542E66246394712CE0EBC3
:100A5000F0E08491F1010491E8E8F0E014911123B1
:100A600009F461C081110E948C00E12FF0E0EE0FCB
:100A7000FF1FEE58FF4FA591B4919C9180916801A2
:100A8000092309F450C08111B1C01092680180910E
:100A9000000190910101A0910201B0910301803801
:100AA0009542A105B10509F069C194EFC92EDD2475
:100AB000D394E12CF12C0E94370100915D0110913B
:100AC0005E0120915F0130916001601B710B820B10
:100AD000930B6C157D058E059F0590F080915C0150
:100AE000F1E08F2780935C010E94B5000E943701DE
:100AF00060935D0170935E0180935F01909360014C
:100B00006AE070E080E090E00E94050180E090E003
:100B1000892B09F49CCF0E94AD01882309F497CF5B
:100B20000E94000094CF8091680181110DC0F1E016
:100B3000F09368010E94370160936401709365012E
:100B400080936601909367010E94370100916401D0
:100B5000109165012091660130916701601B710B56
:100B6000820B930B683B7B408105910508F48FCF86
:100B700080916301811129C081E08093630184E247
:100B800091E00E946B020E943701609364017093B0
:100B90006501809366019093670104E010E080E0B6
:100BA0000E94B50062E370E080E090E00E940501E1
:100BB00081E00E94B50062E370E080E090E00E9476
:100BC00005010150110959F760CF1092630180E3CC
:100BD00091E00E946B020E94370160936401709360
:100BE000650180936601909367014FCF8091630107
:100BF000882309F44ACF80916101909162010196A6
:100C0000823091050CF058C090936201809361018D
:100C10008091610190916201009709F452C001979F
:100C200009F033CF4092000150920101609202011D
:100C30007092030140E052EC61E070E0CE01019659
:100C40000E9419036AE371E0CE0107960E945103E6
:100C5000BE016F5F7F4FCE0107960E94B2020E94D5
:100C60005802CE0107960E948202CE0101960E9490
:100C7000820280E00E94B50066E970E080E090E0CA
:100C80000E94050181E00E94B50066E970E080E005
:100C900090E00E94050180E00E94B50066E970E0E6
:100CA00080E090E00E94050181E00E94B50066E9C5
:100CB00070E080E090E03CC010926201109261010F
:100CC000A7CF8092000190920101A0920201B09200
:100CD000030140E855E260E070E0CE0101960E9419
:100CE00019036AE371E0CE0107960E945103BE0129
:100CF0006F5F7F4FCE0107960E94B2020E9458029A
:100D0000CE0107960E948202CE0101960E948202C5
:100D100080E00E94B5006CE271E080E090E00E940B
:100D2000050181E00E94B50064EF71E080E090E091
:100D30000E94050140910001509101016091020162
:100D400070910301CE0101960E9419036CE471E0D9
:100D5000CE0107960E945103BE016F5F7F4FCE0107
:100D600007960E94B2020E945802CE0107960E9486
:100D70008202CE0101960E94820287CE84E6C82EAE
:100D8000D12CE12CF12C97CEE2E7F1E01382128214
:100D900088EE93E0A0E0B0E084839583A683B783D8
:100DA0008EE091E09183808385EC90E09587848745
:100DB00084EC90E09787868780EC90E0918B808B25
:100DC00081EC90E0938B828B82EC90E0958B848B0E
:100DD00086EC90E0978B868B118E128E138E148E7C
:100DE0000895BB272A3051F4992342F4BDE290952F
:100DF0008095709561957F4F8F4F9F4F0C940107A1
:100E0000BB27FA01A62F6217710581059105330BE7
:100E100030FB66F0AA27660F771F881F991FAA1F4D
:100E2000A21710F0A21B63953850A9F7A05DAA3352
:100E300008F0A95DA19336F7B111B1931082CA01F0
:100E40000C942207DC01FC01672F71917723E1F7F5
:100E5000329704C07C916D9370836291AE17BF0787
:100E6000C8F308952F923F924F925F926F927F92B4
:100E70008F929F92AF92BF92CF92DF92EF92FF92AA
:100E80000F931F93CF93DF93CDB7DEB7CA1BDB0B56
:100E90000FB6F894DEBF0FBECDBF09942A883988FB
:100EA00048885F846E847D848C849B84AA84B98402
:100EB000C884DF80EE80FD800C811B81AA81B9810E
:100EC000CE0FD11D0FB6F894DEBF0FBECDBFED0122
:100ED0000895A1E21A2EAA1BBB1BFD010DC0AA1F7B
:100EE000BB1FEE1FFF1FA217B307E407F50720F093
:100EF000A21BB30BE40BF50B661F771F881F991F0E
:100F00001A9469F760957095809590959B01AC0156
:100F1000BD01CF010895EE0FFF1F0590F491E02D64
:100F200009940F931F93CF93DF938230910510F4B0
:100F300082E090E0E0911102F091120230E020E0B6
:100F4000B0E0A0E0309799F42115310509F44AC0CA
:100F5000281B390B24303105D8F58A819B81611516
:100F6000710589F1FB0193838283FE0111C04081E9
:100F700051810281138148175907E0F0481759073A
:100F800099F4109761F012960C93129713961C9394
:100F90003296CF01DF91CF911F910F910895009369
:100FA000110210931202F4CF2115310551F04217AE
:100FB000530738F0A901DB019A01BD01DF01F801F7
:100FC000C1CFEF01F9CF9093120280931102CDCFE0
:100FD000FE01E20FF31F819391932250310939836F
:100FE0002883D7CF20910F0230911002232B41F498
:100FF00020910601309107013093100220930F02D7
:1010000020910401309105012115310541F42DB7DE
:101010003EB74091080150910901241B350BE09126
:101020000F02F0911002E217F307A0F42E1B3F0B02
:101030002817390778F0AC014E5F5F4F241735074A
:1010400048F04E0F5F1F5093100240930F028193A0
:1010500091939FCFF0E0E0E09CCFCF93DF93009798
:10106000E9F0FC01329713821282A0911102B09133
:101070001202ED0130E020E01097A1F420813181CF
:10108000820F931F20910F02309110022817390709
:1010900009F061C0F0931002E0930F02DF91CF914D
:1010A0000895EA01CE17DF07E8F54A815B819E01CA
:1010B00041155105B1F7E901FB83EA834991599143
:1010C000C40FD51FEC17FD0761F480819181029652
:1010D000840F951FE90199838883828193819B8383
:1010E0008A83F0E0E0E012968D919C91139700972F
:1010F000B9F52D913C911197CD010296820F931F66
:1011000020910F02309110022817390739F63097D5
:1011100051F51092120210921102B0931002A09396
:101120000F02BCCFD383C28340815181840F951FAE
:10113000C817D90761F44E5F5F4F88819981480FC6
:10114000591F518340838A819B8193838283211518
:10115000310509F0B0CFF0931202E09311029ECF57
:10116000FD01DC01C0CF13821282D7CFB0E0A0E036
:10117000ECEBF8E00C9434078C01009751F4CB01B0
:101180000E9491078C01C801CDB7DEB7E0E10C9455
:101190005007FC01E60FF71F9C0122503109E217AE
:1011A000F30708F49DC0D901CD91DC911197C617C2
:1011B000D70798F0C530D10530F3CE0104978617D4
:1011C000970708F3C61BD70B2297C193D1936D9352
:1011D0007C93CF010E942D08D6CF5B01AC1ABD0ACB
:1011E0004C018C0E9D1EA0911102B0911202512C47
:1011F000412CF12CE12C109731F580910F02909148
:1012000010028815990509F05CC04616570608F0CB
:1012100058C08091040190910501009741F48DB769
:101220009EB74091080150910901841B950BE81766
:10123000F90708F055C0F0931002E0930F02F9018E
:1012400071836083A0CF8D919C91119712966C90C1
:10125000129713967C901397A815B90559F56C0150
:1012600042E0C40ED11CCA14DB0420F1AC014A19BF
:101270005B09DA011296159780F0628273825183BE
:101280004083D9016D937C93E114F10471F0D7018F
:101290001396FC93EE93129776CF22968C0F9D1F98
:1012A000F90191838083F301EFCFF0931202E09371
:1012B000110269CF4816590608F42C017D01D301AB
:1012C0009ACFCB010E9491077C01009749F0AE01B3
:1012D000B8010E947309C8010E942D08870153CFED
:1012E00010E000E050CFFB01DC0102C001900D9244
:1012F00041505040D8F70895FB01DC0101900D9258
:0A1300000020E1F70895F894FFCFF4
:10130A008025000000001302800000000000E301B5
:10131A00430170013002A1017F0193010D0A0042CD
:10132A00523A20007C7C205374617274207C7C00C9
:10133A007C7C20455343207C7C0044616E6720639B
:10134A00687579656E2073616E6720004461206359
:0C135A00687579656E2073616E67200075
:00000001FF
